{
  "contractName": "CornShop",
  "abi": [
    {
      "constant": true,
      "inputs": [
        {
          "name": "",
          "type": "uint256"
        }
      ],
      "name": "shopToOwner",
      "outputs": [
        {
          "name": "",
          "type": "address"
        }
      ],
      "payable": false,
      "stateMutability": "view",
      "type": "function"
    },
    {
      "anonymous": false,
      "inputs": [
        {
          "indexed": false,
          "name": "shopId",
          "type": "uint256"
        },
        {
          "indexed": false,
          "name": "pattern",
          "type": "uint256"
        }
      ],
      "name": "NewShop",
      "type": "event"
    },
    {
      "constant": false,
      "inputs": [],
      "name": "createShop",
      "outputs": [],
      "payable": false,
      "stateMutability": "nonpayable",
      "type": "function"
    }
  ],
  "bytecode": "0x60806040526010600055600054600a0a60015534801561001e57600080fd5b506103168061002e6000396000f3fe60806040526004361061004c576000357c0100000000000000000000000000000000000000000000000000000000900463ffffffff1680632cf0d92a14610051578063cedc3b25146100cc575b600080fd5b34801561005d57600080fd5b5061008a6004803603602081101561007457600080fd5b81019080803590602001909291905050506100e3565b604051808273ffffffffffffffffffffffffffffffffffffffff1673ffffffffffffffffffffffffffffffffffffffff16815260200191505060405180910390f35b3480156100d857600080fd5b506100e1610116565b005b60036020528060005260406000206000915054906101000a900473ffffffffffffffffffffffffffffffffffffffff1681565b60006001600260606040519081016040528060088152602001600081526020016000151581525090806001815401808255809150509060018203906000526020600020906003020160009091929091909150600082015181600001556020820151816001015560408201518160020160006101000a81548160ff0219169083151502179055505050039050336003600083815260200190815260200160002060006101000a81548173ffffffffffffffffffffffffffffffffffffffff021916908373ffffffffffffffffffffffffffffffffffffffff1602179055506102466001600460003373ffffffffffffffffffffffffffffffffffffffff1673ffffffffffffffffffffffffffffffffffffffff168152602001908152602001600020546102cc90919063ffffffff16565b600460003373ffffffffffffffffffffffffffffffffffffffff1673ffffffffffffffffffffffffffffffffffffffff168152602001908152602001600020819055507f2155c0f2150309ab63501652348ac576edbf81cd110a1f61c7259dae54471c53816000604051808381526020018281526020019250505060405180910390a150565b60008082840190508381101515156102e057fe5b809150509291505056fea165627a7a723058207ec2fb63eda5cd455cbf47049ff1fe78bd6377a113590572d790fbdd0f422f0e0029",
  "source": "pragma solidity >=0.5.0 <0.6.0;\r\n\r\nimport \"../adds/safemath.sol\";\r\n\r\ncontract CornShop {\r\n    using SafeMath for uint256;\r\n    using SafeMath32 for uint32;\r\n    using SafeMath16 for uint16;\r\n\r\n    event NewShop(uint shopId, uint pattern);\r\n\r\n    uint patternDigits = 16;\r\n    uint patternModulus = 10 ** patternDigits;\r\n\r\n    struct Shop {\r\n        uint inventorySize;\r\n        uint pattern;\r\n        bool firstBought;\r\n    }\r\n\r\n    Shop[] shops;\r\n\r\n    mapping (uint => address) public shopToOwner;\r\n    mapping (address => uint) ownerShopCount;\r\n\r\n    function createShop() public {\r\n        uint id = shops.push(Shop(8, 0, false)) - 1;\r\n        shopToOwner[id] = msg.sender;\r\n        ownerShopCount[msg.sender] = ownerShopCount[msg.sender].add(1);\r\n        emit NewShop(id, 0);\r\n    }\r\n}",
  "sourcePath": "D:\\CryptoTurnip\\CryptoTurnip\\contracts\\CornShop.sol",
  "compiler": {
    "name": "solc",
    "version": "0.5.0+commit.1d4f565a.Emscripten.clang"
  },
  "schemaVersion": "3.4.11",
  "updatedAt": "2023-01-10T05:28:53.415Z",
  "devdoc": {
    "methods": {}
  },
  "userdoc": {
    "methods": {}
  }
}