{
  "contractName": "CornShop",
  "abi": [
    {
      "constant": true,
      "inputs": [
        {
          "name": "",
          "type": "uint256"
        }
      ],
      "name": "shopToOwner",
      "outputs": [
        {
          "name": "",
          "type": "address"
        }
      ],
      "payable": false,
      "stateMutability": "view",
      "type": "function"
    },
    {
      "inputs": [],
      "payable": false,
      "stateMutability": "nonpayable",
      "type": "constructor"
    },
    {
      "anonymous": false,
      "inputs": [
        {
          "indexed": false,
          "name": "shopId",
          "type": "uint256"
        },
        {
          "indexed": false,
          "name": "pattern",
          "type": "uint256"
        }
      ],
      "name": "NewShop",
      "type": "event"
    },
    {
      "constant": false,
      "inputs": [],
      "name": "buyCorn",
      "outputs": [],
      "payable": false,
      "stateMutability": "nonpayable",
      "type": "function"
    },
    {
      "constant": false,
      "inputs": [],
      "name": "sellCorn",
      "outputs": [],
      "payable": false,
      "stateMutability": "nonpayable",
      "type": "function"
    }
  ],
  "bytecode": "0x608060405266038d7ea4c6800060005566071afd498d00006001556010600255600254600a0a60035534801561003457600080fd5b50610168806100446000396000f3fe608060405260043610610057576000357c0100000000000000000000000000000000000000000000000000000000900463ffffffff1680632cf0d92a1461005c5780632cf71689146100d7578063950e61f2146100ee575b600080fd5b34801561006857600080fd5b506100956004803603602081101561007f57600080fd5b8101908080359060200190929190505050610105565b604051808273ffffffffffffffffffffffffffffffffffffffff1673ffffffffffffffffffffffffffffffffffffffff16815260200191505060405180910390f35b3480156100e357600080fd5b506100ec610138565b005b3480156100fa57600080fd5b5061010361013a565b005b60056020528060005260406000206000915054906101000a900473ffffffffffffffffffffffffffffffffffffffff1681565b565b56fea165627a7a72305820744b386d2e164ff366914137a90483bc594b4cd0c83aabbe30040abf10a9db380029",
  "source": "pragma solidity >=0.5.0 <0.6.0;\n\nimport \"../adds/safemath.sol\";\n\ncontract CornShop {\n    using SafeMath for uint256;\n    using SafeMath32 for uint32;\n    using SafeMath16 for uint16;\n\n    uint minBoughtPrice = 0.001 ether;\n    uint maxBoughtPrice = 0.002 ether;\n\n    event NewShop(uint shopId, uint pattern);\n\n    uint patternDigits = 16;\n    uint patternModulus = 10 ** patternDigits;\n\n    struct Shop {\n        uint inventorySize;\n        uint pattern;\n        bool firstBought;\n    }\n\n    Shop[] shops;\n\n    mapping (uint => address) public shopToOwner;\n    mapping (address => uint) ownerShopCount;\n\n    constructor() public {\n        \n    }\n\n    function buyCorn() public {\n        \n    }\n\n    function sellCorn() public {\n        \n    }\n}",
  "sourcePath": "D:\\University\\Modile_Dev\\CryptoTurnip\\contracts\\CornShop.sol",
  "compiler": {
    "name": "solc",
    "version": "0.5.0+commit.1d4f565a.Emscripten.clang"
  },
  "schemaVersion": "3.4.11",
  "updatedAt": "2023-01-11T10:44:05.431Z",
  "devdoc": {
    "methods": {}
  },
  "userdoc": {
    "methods": {}
  }
}